{
  "_format": "hh-sol-artifact-1",
  "contractName": "SupplyChainBiography",
  "sourceName": "contracts/SupplyChainBiography.sol",
  "abi": [
    {
      "inputs": [
        {
          "internalType": "string",
          "name": "_name",
          "type": "string"
        },
        {
          "internalType": "string",
          "name": "_symbol",
          "type": "string"
        }
      ],
      "stateMutability": "nonpayable",
      "type": "constructor"
    },
    {
      "anonymous": false,
      "inputs": [
        {
          "indexed": false,
          "internalType": "string",
          "name": "entityName",
          "type": "string"
        },
        {
          "indexed": false,
          "internalType": "string",
          "name": "location",
          "type": "string"
        },
        {
          "indexed": false,
          "internalType": "string",
          "name": "action",
          "type": "string"
        },
        {
          "indexed": false,
          "internalType": "uint256",
          "name": "timestamp",
          "type": "uint256"
        }
      ],
      "name": "AddSupplyChainInfo",
      "type": "event"
    },
    {
      "anonymous": false,
      "inputs": [
        {
          "indexed": true,
          "internalType": "address",
          "name": "owner",
          "type": "address"
        },
        {
          "indexed": true,
          "internalType": "address",
          "name": "approved",
          "type": "address"
        },
        {
          "indexed": true,
          "internalType": "uint256",
          "name": "tokenId",
          "type": "uint256"
        }
      ],
      "name": "Approval",
      "type": "event"
    },
    {
      "anonymous": false,
      "inputs": [
        {
          "indexed": true,
          "internalType": "address",
          "name": "owner",
          "type": "address"
        },
        {
          "indexed": true,
          "internalType": "address",
          "name": "operator",
          "type": "address"
        },
        {
          "indexed": false,
          "internalType": "bool",
          "name": "approved",
          "type": "bool"
        }
      ],
      "name": "ApprovalForAll",
      "type": "event"
    },
    {
      "anonymous": false,
      "inputs": [
        {
          "indexed": false,
          "internalType": "address",
          "name": "supplyChain",
          "type": "address"
        },
        {
          "indexed": false,
          "internalType": "bool",
          "name": "isActive",
          "type": "bool"
        }
      ],
      "name": "RegisterSupplyChain",
      "type": "event"
    },
    {
      "anonymous": false,
      "inputs": [
        {
          "indexed": true,
          "internalType": "address",
          "name": "from",
          "type": "address"
        },
        {
          "indexed": true,
          "internalType": "address",
          "name": "to",
          "type": "address"
        },
        {
          "indexed": true,
          "internalType": "uint256",
          "name": "tokenId",
          "type": "uint256"
        }
      ],
      "name": "Transfer",
      "type": "event"
    },
    {
      "inputs": [
        {
          "internalType": "address",
          "name": "",
          "type": "address"
        }
      ],
      "name": "actionMap",
      "outputs": [
        {
          "internalType": "string",
          "name": "",
          "type": "string"
        }
      ],
      "stateMutability": "view",
      "type": "function"
    },
    {
      "inputs": [
        {
          "internalType": "address",
          "name": "_supplyChain",
          "type": "address"
        }
      ],
      "name": "addSupplyChainInfo",
      "outputs": [],
      "stateMutability": "nonpayable",
      "type": "function"
    },
    {
      "inputs": [
        {
          "internalType": "address",
          "name": "to",
          "type": "address"
        },
        {
          "internalType": "uint256",
          "name": "tokenId",
          "type": "uint256"
        }
      ],
      "name": "approve",
      "outputs": [],
      "stateMutability": "nonpayable",
      "type": "function"
    },
    {
      "inputs": [
        {
          "internalType": "address",
          "name": "owner",
          "type": "address"
        }
      ],
      "name": "balanceOf",
      "outputs": [
        {
          "internalType": "uint256",
          "name": "",
          "type": "uint256"
        }
      ],
      "stateMutability": "view",
      "type": "function"
    },
    {
      "inputs": [
        {
          "internalType": "address",
          "name": "",
          "type": "address"
        }
      ],
      "name": "coordinateMap",
      "outputs": [
        {
          "internalType": "uint256",
          "name": "latitude",
          "type": "uint256"
        },
        {
          "internalType": "uint256",
          "name": "longitude",
          "type": "uint256"
        }
      ],
      "stateMutability": "view",
      "type": "function"
    },
    {
      "inputs": [
        {
          "internalType": "address",
          "name": "",
          "type": "address"
        }
      ],
      "name": "entityMap",
      "outputs": [
        {
          "internalType": "string",
          "name": "",
          "type": "string"
        }
      ],
      "stateMutability": "view",
      "type": "function"
    },
    {
      "inputs": [
        {
          "internalType": "uint256",
          "name": "tokenId",
          "type": "uint256"
        }
      ],
      "name": "getApproved",
      "outputs": [
        {
          "internalType": "address",
          "name": "",
          "type": "address"
        }
      ],
      "stateMutability": "view",
      "type": "function"
    },
    {
      "inputs": [],
      "name": "getSupplyChainInfo",
      "outputs": [
        {
          "components": [
            {
              "internalType": "uint256",
              "name": "latitude",
              "type": "uint256"
            },
            {
              "internalType": "uint256",
              "name": "longitude",
              "type": "uint256"
            },
            {
              "internalType": "string",
              "name": "name",
              "type": "string"
            },
            {
              "internalType": "string",
              "name": "entityName",
              "type": "string"
            },
            {
              "internalType": "string",
              "name": "location",
              "type": "string"
            },
            {
              "internalType": "string",
              "name": "action",
              "type": "string"
            },
            {
              "internalType": "uint256",
              "name": "timestamp",
              "type": "uint256"
            }
          ],
          "internalType": "struct SupplyChainBiography.SupplyChainInfo[]",
          "name": "",
          "type": "tuple[]"
        }
      ],
      "stateMutability": "view",
      "type": "function"
    },
    {
      "inputs": [
        {
          "internalType": "address",
          "name": "owner",
          "type": "address"
        },
        {
          "internalType": "address",
          "name": "operator",
          "type": "address"
        }
      ],
      "name": "isApprovedForAll",
      "outputs": [
        {
          "internalType": "bool",
          "name": "",
          "type": "bool"
        }
      ],
      "stateMutability": "view",
      "type": "function"
    },
    {
      "inputs": [
        {
          "internalType": "address",
          "name": "",
          "type": "address"
        }
      ],
      "name": "isSupplyChain",
      "outputs": [
        {
          "internalType": "bool",
          "name": "",
          "type": "bool"
        }
      ],
      "stateMutability": "view",
      "type": "function"
    },
    {
      "inputs": [
        {
          "internalType": "address",
          "name": "",
          "type": "address"
        }
      ],
      "name": "locationMap",
      "outputs": [
        {
          "internalType": "string",
          "name": "",
          "type": "string"
        }
      ],
      "stateMutability": "view",
      "type": "function"
    },
    {
      "inputs": [],
      "name": "mint",
      "outputs": [
        {
          "internalType": "uint256",
          "name": "",
          "type": "uint256"
        }
      ],
      "stateMutability": "nonpayable",
      "type": "function"
    },
    {
      "inputs": [],
      "name": "name",
      "outputs": [
        {
          "internalType": "string",
          "name": "",
          "type": "string"
        }
      ],
      "stateMutability": "view",
      "type": "function"
    },
    {
      "inputs": [
        {
          "internalType": "address",
          "name": "",
          "type": "address"
        }
      ],
      "name": "nameMap",
      "outputs": [
        {
          "internalType": "string",
          "name": "",
          "type": "string"
        }
      ],
      "stateMutability": "view",
      "type": "function"
    },
    {
      "inputs": [
        {
          "internalType": "uint256",
          "name": "tokenId",
          "type": "uint256"
        }
      ],
      "name": "ownerOf",
      "outputs": [
        {
          "internalType": "address",
          "name": "",
          "type": "address"
        }
      ],
      "stateMutability": "view",
      "type": "function"
    },
    {
      "inputs": [
        {
          "internalType": "address",
          "name": "_supplyChain",
          "type": "address"
        },
        {
          "internalType": "bool",
          "name": "_isActive",
          "type": "bool"
        },
        {
          "components": [
            {
              "internalType": "uint256",
              "name": "latitude",
              "type": "uint256"
            },
            {
              "internalType": "uint256",
              "name": "longitude",
              "type": "uint256"
            }
          ],
          "internalType": "struct SupplyChainBiography.Coordinate",
          "name": "_coordinate",
          "type": "tuple"
        },
        {
          "internalType": "string",
          "name": "_name",
          "type": "string"
        },
        {
          "internalType": "string",
          "name": "_entity",
          "type": "string"
        },
        {
          "internalType": "string",
          "name": "_location",
          "type": "string"
        },
        {
          "internalType": "string",
          "name": "_action",
          "type": "string"
        }
      ],
      "name": "registerSupplyChain",
      "outputs": [],
      "stateMutability": "nonpayable",
      "type": "function"
    },
    {
      "inputs": [
        {
          "internalType": "address",
          "name": "from",
          "type": "address"
        },
        {
          "internalType": "address",
          "name": "to",
          "type": "address"
        },
        {
          "internalType": "uint256",
          "name": "tokenId",
          "type": "uint256"
        }
      ],
      "name": "safeTransferFrom",
      "outputs": [],
      "stateMutability": "nonpayable",
      "type": "function"
    },
    {
      "inputs": [
        {
          "internalType": "address",
          "name": "from",
          "type": "address"
        },
        {
          "internalType": "address",
          "name": "to",
          "type": "address"
        },
        {
          "internalType": "uint256",
          "name": "tokenId",
          "type": "uint256"
        },
        {
          "internalType": "bytes",
          "name": "data",
          "type": "bytes"
        }
      ],
      "name": "safeTransferFrom",
      "outputs": [],
      "stateMutability": "nonpayable",
      "type": "function"
    },
    {
      "inputs": [
        {
          "internalType": "address",
          "name": "operator",
          "type": "address"
        },
        {
          "internalType": "bool",
          "name": "approved",
          "type": "bool"
        }
      ],
      "name": "setApprovalForAll",
      "outputs": [],
      "stateMutability": "nonpayable",
      "type": "function"
    },
    {
      "inputs": [
        {
          "internalType": "uint256",
          "name": "",
          "type": "uint256"
        }
      ],
      "name": "supplyChainInfos",
      "outputs": [
        {
          "internalType": "uint256",
          "name": "latitude",
          "type": "uint256"
        },
        {
          "internalType": "uint256",
          "name": "longitude",
          "type": "uint256"
        },
        {
          "internalType": "string",
          "name": "name",
          "type": "string"
        },
        {
          "internalType": "string",
          "name": "entityName",
          "type": "string"
        },
        {
          "internalType": "string",
          "name": "location",
          "type": "string"
        },
        {
          "internalType": "string",
          "name": "action",
          "type": "string"
        },
        {
          "internalType": "uint256",
          "name": "timestamp",
          "type": "uint256"
        }
      ],
      "stateMutability": "view",
      "type": "function"
    },
    {
      "inputs": [
        {
          "internalType": "bytes4",
          "name": "interfaceId",
          "type": "bytes4"
        }
      ],
      "name": "supportsInterface",
      "outputs": [
        {
          "internalType": "bool",
          "name": "",
          "type": "bool"
        }
      ],
      "stateMutability": "view",
      "type": "function"
    },
    {
      "inputs": [],
      "name": "symbol",
      "outputs": [
        {
          "internalType": "string",
          "name": "",
          "type": "string"
        }
      ],
      "stateMutability": "view",
      "type": "function"
    },
    {
      "inputs": [
        {
          "internalType": "uint256",
          "name": "tokenId",
          "type": "uint256"
        }
      ],
      "name": "tokenURI",
      "outputs": [
        {
          "internalType": "string",
          "name": "",
          "type": "string"
        }
      ],
      "stateMutability": "view",
      "type": "function"
    },
    {
      "inputs": [
        {
          "internalType": "address",
          "name": "from",
          "type": "address"
        },
        {
          "internalType": "address",
          "name": "to",
          "type": "address"
        },
        {
          "internalType": "uint256",
          "name": "tokenId",
          "type": "uint256"
        }
      ],
      "name": "transferFrom",
      "outputs": [],
      "stateMutability": "nonpayable",
      "type": "function"
    }
  ],
  "bytecode": "0x60806040523480156200001157600080fd5b5060405162002844380380620028448339810160408190526200003491620001e1565b8151829082906200004d9060009060208501906200006e565b508051620000639060019060208401906200006e565b505050505062000288565b8280546200007c906200024b565b90600052602060002090601f016020900481019282620000a05760008555620000eb565b82601f10620000bb57805160ff1916838001178555620000eb565b82800160010185558215620000eb579182015b82811115620000eb578251825591602001919060010190620000ce565b50620000f9929150620000fd565b5090565b5b80821115620000f95760008155600101620000fe565b634e487b7160e01b600052604160045260246000fd5b600082601f8301126200013c57600080fd5b81516001600160401b038082111562000159576200015962000114565b604051601f8301601f19908116603f0116810190828211818310171562000184576200018462000114565b81604052838152602092508683858801011115620001a157600080fd5b600091505b83821015620001c55785820183015181830184015290820190620001a6565b83821115620001d75760008385830101525b9695505050505050565b60008060408385031215620001f557600080fd5b82516001600160401b03808211156200020d57600080fd5b6200021b868387016200012a565b935060208501519150808211156200023257600080fd5b5062000241858286016200012a565b9150509250929050565b600181811c908216806200026057607f821691505b602082108114156200028257634e487b7160e01b600052602260045260246000fd5b50919050565b6125ac80620002986000396000f3fe608060405234801561001057600080fd5b50600436106101285760003560e01c806301ffc9a71461012d57806305f4dbdf1461015557806306fdde0314610175578063081812fc1461017d578063095ea7b3146101a85780631249c58b146101bd5780631d157c9e146101d357806323b872dd1461020f57806342842e0e146102225780636352211e1461023557806370a08231146102485780637138721c1461025b5780637a5dc7a81461028157806395d89b4114610296578063a22cb4651461029e578063b88d4fde146102b1578063c378c0e2146102c4578063c425d1ad146102d7578063c62af2b7146102ea578063c87b56dd146102fd578063d6f531be14610310578063e985e9c514610323578063f206a5ed14610336578063f37a473014610359575b600080fd5b61014061013b366004611d38565b61036c565b60405190151581526020015b60405180910390f35b610168610163366004611d6c565b6103be565b60405161014c9190611ddf565b610168610458565b61019061018b366004611df2565b6104ea565b6040516001600160a01b03909116815260200161014c565b6101bb6101b6366004611e0b565b610511565b005b6101c561062c565b60405190815260200161014c565b6101fa6101e1366004611d6c565b6009602052600090815260409020805460019091015482565b6040805192835260208301919091520161014c565b6101bb61021d366004611e35565b610658565b6101bb610230366004611e35565b610689565b610190610243366004611df2565b6106a4565b6101c5610256366004611d6c565b6106d8565b61026e610269366004611df2565b61075e565b60405161014c9796959493929190611e71565b6102896109d0565b60405161014c9190611edf565b610168610d39565b6101bb6102ac366004611fcc565b610d48565b6101bb6102bf366004612045565b610d57565b6101686102d2366004611d6c565b610d8f565b6101686102e5366004611d6c565b610da8565b6101bb6102f8366004611d6c565b610dc1565b61016861030b366004611df2565b611203565b6101bb61031e36600461219a565b611277565b610140610331366004612298565b611434565b610140610344366004611d6c565b60086020526000908152604090205460ff1681565b610168610367366004611d6c565b611462565b60006001600160e01b031982166380ac58cd60e01b148061039d57506001600160e01b03198216635b5e139f60e01b145b806103b857506301ffc9a760e01b6001600160e01b03198316145b92915050565b600d60205260009081526040902080546103d7906122c2565b80601f0160208091040260200160405190810160405280929190818152602001828054610403906122c2565b80156104505780601f1061042557610100808354040283529160200191610450565b820191906000526020600020905b81548152906001019060200180831161043357829003601f168201915b505050505081565b606060008054610467906122c2565b80601f0160208091040260200160405190810160405280929190818152602001828054610493906122c2565b80156104e05780601f106104b5576101008083540402835291602001916104e0565b820191906000526020600020905b8154815290600101906020018083116104c357829003601f168201915b5050505050905090565b60006104f58261147b565b506000908152600460205260409020546001600160a01b031690565b600061051c826106a4565b9050806001600160a01b0316836001600160a01b0316141561058f5760405162461bcd60e51b815260206004820152602160248201527f4552433732313a20617070726f76616c20746f2063757272656e74206f776e656044820152603960f91b60648201526084015b60405180910390fd5b336001600160a01b03821614806105ab57506105ab8133611434565b61061d5760405162461bcd60e51b815260206004820152603d60248201527f4552433732313a20617070726f76652063616c6c6572206973206e6f7420746f60448201527f6b656e206f776e6572206f7220617070726f76656420666f7220616c6c0000006064820152608401610586565b61062783836114a3565b505050565b600061063c600680546001019055565b600061064760065490565b90506106533382611511565b919050565b610662338261152b565b61067e5760405162461bcd60e51b8152600401610586906122f7565b61062783838361158a565b61062783838360405180602001604052806000815250610d57565b6000806106b0836116dc565b90506001600160a01b0381166103b85760405162461bcd60e51b815260040161058690612344565b60006001600160a01b0382166107425760405162461bcd60e51b815260206004820152602960248201527f4552433732313a2061646472657373207a65726f206973206e6f7420612076616044820152683634b21037bbb732b960b91b6064820152608401610586565b506001600160a01b031660009081526003602052604090205490565b6007818154811061076e57600080fd5b906000526020600020906007020160009150905080600001549080600101549080600201805461079d906122c2565b80601f01602080910402602001604051908101604052809291908181526020018280546107c9906122c2565b80156108165780601f106107eb57610100808354040283529160200191610816565b820191906000526020600020905b8154815290600101906020018083116107f957829003601f168201915b50505050509080600301805461082b906122c2565b80601f0160208091040260200160405190810160405280929190818152602001828054610857906122c2565b80156108a45780601f10610879576101008083540402835291602001916108a4565b820191906000526020600020905b81548152906001019060200180831161088757829003601f168201915b5050505050908060040180546108b9906122c2565b80601f01602080910402602001604051908101604052809291908181526020018280546108e5906122c2565b80156109325780601f1061090757610100808354040283529160200191610932565b820191906000526020600020905b81548152906001019060200180831161091557829003601f168201915b505050505090806005018054610947906122c2565b80601f0160208091040260200160405190810160405280929190818152602001828054610973906122c2565b80156109c05780601f10610995576101008083540402835291602001916109c0565b820191906000526020600020905b8154815290600101906020018083116109a357829003601f168201915b5050505050908060060154905087565b6007546060906000906001600160401b038111156109f0576109f0611fff565b604051908082528060200260200182016040528015610a6157816020015b610a4e6040518060e00160405280600081526020016000815260200160608152602001606081526020016060815260200160608152602001600081525090565b815260200190600190039081610a0e5790505b50905060005b600754811015610d335760078181548110610a8457610a84612376565b90600052602060002090600702016040518060e00160405290816000820154815260200160018201548152602001600282018054610ac1906122c2565b80601f0160208091040260200160405190810160405280929190818152602001828054610aed906122c2565b8015610b3a5780601f10610b0f57610100808354040283529160200191610b3a565b820191906000526020600020905b815481529060010190602001808311610b1d57829003601f168201915b50505050508152602001600382018054610b53906122c2565b80601f0160208091040260200160405190810160405280929190818152602001828054610b7f906122c2565b8015610bcc5780601f10610ba157610100808354040283529160200191610bcc565b820191906000526020600020905b815481529060010190602001808311610baf57829003601f168201915b50505050508152602001600482018054610be5906122c2565b80601f0160208091040260200160405190810160405280929190818152602001828054610c11906122c2565b8015610c5e5780601f10610c3357610100808354040283529160200191610c5e565b820191906000526020600020905b815481529060010190602001808311610c4157829003601f168201915b50505050508152602001600582018054610c77906122c2565b80601f0160208091040260200160405190810160405280929190818152602001828054610ca3906122c2565b8015610cf05780601f10610cc557610100808354040283529160200191610cf0565b820191906000526020600020905b815481529060010190602001808311610cd357829003601f168201915b50505050508152602001600682015481525050828281518110610d1557610d15612376565b60200260200101819052508080610d2b9061238c565b915050610a67565b50919050565b606060018054610467906122c2565b610d533383836116f7565b5050565b610d61338361152b565b610d7d5760405162461bcd60e51b8152600401610586906122f7565b610d89848484846117c2565b50505050565b600a60205260009081526040902080546103d7906122c2565b600c60205260009081526040902080546103d7906122c2565b610dc96117f5565b6001600160a01b0381166000818152600960209081526040808320815180830183528154815260019091015481840152938352600a90915281208054610e0e906122c2565b80601f0160208091040260200160405190810160405280929190818152602001828054610e3a906122c2565b8015610e875780601f10610e5c57610100808354040283529160200191610e87565b820191906000526020600020905b815481529060010190602001808311610e6a57829003601f168201915b5050506001600160a01b0386166000908152600b6020526040812080549495509093909250610eb691506122c2565b80601f0160208091040260200160405190810160405280929190818152602001828054610ee2906122c2565b8015610f2f5780601f10610f0457610100808354040283529160200191610f2f565b820191906000526020600020905b815481529060010190602001808311610f1257829003601f168201915b5050506001600160a01b0387166000908152600c6020526040812080549495509093909250610f5e91506122c2565b80601f0160208091040260200160405190810160405280929190818152602001828054610f8a906122c2565b8015610fd75780601f10610fac57610100808354040283529160200191610fd7565b820191906000526020600020905b815481529060010190602001808311610fba57829003601f168201915b5050506001600160a01b0388166000908152600d602052604081208054949550909390925061100691506122c2565b80601f0160208091040260200160405190810160405280929190818152602001828054611032906122c2565b801561107f5780601f106110545761010080835404028352916020019161107f565b820191906000526020600020905b81548152906001019060200180831161106257829003601f168201915b50506040805160e0810182528a5181526020808c01518183019081529282018b8152606083018b9052608083018a905260a083018890524260c0840152600780546001810182556000829052845191027fa66cc928b5edb82af9bd49922954155ab7b0942694bea4ce44661d9a8736c688810191825594517fa66cc928b5edb82af9bd49922954155ab7b0942694bea4ce44661d9a8736c68986015590518051989950929788975090955061115c94507fa66cc928b5edb82af9bd49922954155ab7b0942694bea4ce44661d9a8736c68a90930192910190611c15565b5060608201518051611178916003840191602090910190611c15565b5060808201518051611194916004840191602090910190611c15565b5060a082015180516111b0916005840191602090910190611c15565b5060c0820151816006015550507f9002324afb4b5918d648b18f29cee2a992bcb0b57a20dcbe8661c8c7053e1e64848484426040516111f294939291906123b5565b60405180910390a150505050505050565b606061120e8261147b565b600061122560408051602081019091526000815290565b905060008151116112455760405180602001604052806000815250611270565b8061124f8461185a565b604051602001611260929190612400565b6040516020818303038152906040525b9392505050565b6001600160a01b038b166112bf5760405162461bcd60e51b815260206004820152600f60248201526e696e76616c6964206164647265737360881b6044820152606401610586565b6001600160a01b038b1660009081526008602052604090205460ff16156113285760405162461bcd60e51b815260206004820152601f60248201527f737570706c7920636861696e20616c72656164792072656769737465726564006044820152606401610586565b6001600160a01b038b166000908152600860209081526040808320805460ff19168e1515179055600982528083208c5181558c83015160019190910155600a9091529020611377908989611c99565b506001600160a01b038b166000908152600b6020526040902061139b908787611c99565b506001600160a01b038b166000908152600c602052604090206113bf908585611c99565b506001600160a01b038b166000908152600d602052604090206113e3908383611c99565b50604080516001600160a01b038d1681528b151560208201527f1c385d88565761f7803f45e62491347be0328c347ae82b79b07afe59f375adbc910160405180910390a15050505050505050505050565b6001600160a01b03918216600090815260056020908152604080832093909416825291909152205460ff1690565b600b60205260009081526040902080546103d7906122c2565b611484816118f6565b6114a05760405162461bcd60e51b815260040161058690612344565b50565b600081815260046020526040902080546001600160a01b0319166001600160a01b03841690811790915581906114d8826106a4565b6001600160a01b03167f8c5be1e5ebec7d5bd14f71427d1e84f3dd0314c0f7b2291e5b200ac8c7c3b92560405160405180910390a45050565b610d53828260405180602001604052806000815250611913565b600080611537836106a4565b9050806001600160a01b0316846001600160a01b0316148061155e575061155e8185611434565b806115825750836001600160a01b0316611577846104ea565b6001600160a01b0316145b949350505050565b826001600160a01b031661159d826106a4565b6001600160a01b0316146115c35760405162461bcd60e51b81526004016105869061242f565b6001600160a01b0382166116255760405162461bcd60e51b8152602060048201526024808201527f4552433732313a207472616e7366657220746f20746865207a65726f206164646044820152637265737360e01b6064820152608401610586565b826001600160a01b0316611638826106a4565b6001600160a01b03161461165e5760405162461bcd60e51b81526004016105869061242f565b600081815260046020908152604080832080546001600160a01b03199081169091556001600160a01b03878116808652600385528386208054600019019055908716808652838620805460010190558686526002909452828520805490921684179091559051849360008051602061255783398151915291a4505050565b6000908152600260205260409020546001600160a01b031690565b816001600160a01b0316836001600160a01b031614156117555760405162461bcd60e51b815260206004820152601960248201527822a9219b99189d1030b8383937bb32903a379031b0b63632b960391b6044820152606401610586565b6001600160a01b03838116600081815260056020908152604080832094871680845294825291829020805460ff191686151590811790915591519182527f17307eab39ab6107e8899845ad3d59bd9653f200f220920489ca2b5937696c31910160405180910390a3505050565b6117cd84848461158a565b6117d984848484611946565b610d895760405162461bcd60e51b815260040161058690612474565b3360009081526008602052604090205460ff1615156001146118585760405162461bcd60e51b815260206004820152601c60248201527b37b7363c9030baba3437b934bd32b21039bab838363c9031b430b4b760211b6044820152606401610586565b565b6060600061186783611a44565b60010190506000816001600160401b0381111561188657611886611fff565b6040519080825280601f01601f1916602001820160405280156118b0576020820181803683370190505b5090508181016020015b600019016f181899199a1a9b1b9c1cb0b131b232b360811b600a86061a8153600a85049450846118e9576118ee565b6118ba565b509392505050565b600080611902836116dc565b6001600160a01b0316141592915050565b61191d8383611b1a565b61192a6000848484611946565b6106275760405162461bcd60e51b815260040161058690612474565b60006001600160a01b0384163b15611a3957604051630a85bd0160e11b81526001600160a01b0385169063150b7a029061198a9033908990889088906004016124c6565b6020604051808303816000875af19250505080156119c5575060408051601f3d908101601f191682019092526119c291810190612503565b60015b611a1f573d8080156119f3576040519150601f19603f3d011682016040523d82523d6000602084013e6119f8565b606091505b508051611a175760405162461bcd60e51b815260040161058690612474565b805181602001fd5b6001600160e01b031916630a85bd0160e11b149050611582565b506001949350505050565b60008072184f03e93ff9f4daa797ed6e38ed64bf6a1f0160401b8310611a835772184f03e93ff9f4daa797ed6e38ed64bf6a1f0160401b830492506040015b6904ee2d6d415b85acef8160201b8310611aad576904ee2d6d415b85acef8160201b830492506020015b662386f26fc100008310611acb57662386f26fc10000830492506010015b6305f5e1008310611ae3576305f5e100830492506008015b6127108310611af757612710830492506004015b60648310611b09576064830492506002015b600a83106103b85760010192915050565b6001600160a01b038216611b705760405162461bcd60e51b815260206004820181905260248201527f4552433732313a206d696e7420746f20746865207a65726f20616464726573736044820152606401610586565b611b79816118f6565b15611b965760405162461bcd60e51b815260040161058690612520565b611b9f816118f6565b15611bbc5760405162461bcd60e51b815260040161058690612520565b6001600160a01b038216600081815260036020908152604080832080546001019055848352600290915280822080546001600160a01b031916841790555183929190600080516020612557833981519152908290a45050565b828054611c21906122c2565b90600052602060002090601f016020900481019282611c435760008555611c89565b82601f10611c5c57805160ff1916838001178555611c89565b82800160010185558215611c89579182015b82811115611c89578251825591602001919060010190611c6e565b50611c95929150611d0d565b5090565b828054611ca5906122c2565b90600052602060002090601f016020900481019282611cc75760008555611c89565b82601f10611ce05782800160ff19823516178555611c89565b82800160010185558215611c89579182015b82811115611c89578235825591602001919060010190611cf2565b5b80821115611c955760008155600101611d0e565b6001600160e01b0319811681146114a057600080fd5b600060208284031215611d4a57600080fd5b813561127081611d22565b80356001600160a01b038116811461065357600080fd5b600060208284031215611d7e57600080fd5b61127082611d55565b60005b83811015611da2578181015183820152602001611d8a565b83811115610d895750506000910152565b60008151808452611dcb816020860160208601611d87565b601f01601f19169290920160200192915050565b6020815260006112706020830184611db3565b600060208284031215611e0457600080fd5b5035919050565b60008060408385031215611e1e57600080fd5b611e2783611d55565b946020939093013593505050565b600080600060608486031215611e4a57600080fd5b611e5384611d55565b9250611e6160208501611d55565b9150604084013590509250925092565b87815286602082015260e060408201526000611e9060e0830188611db3565b8281036060840152611ea28188611db3565b90508281036080840152611eb68187611db3565b905082810360a0840152611eca8186611db3565b9150508260c083015298975050505050505050565b60006020808301818452808551808352604092508286019150828160051b87010184880160005b83811015611fae57603f19898403018552815160e0815185528882015189860152878201518189870152611f3c82870182611db3565b91505060608083015186830382880152611f568382611db3565b9250505060808083015186830382880152611f718382611db3565b9250505060a08083015186830382880152611f8c8382611db3565b60c0948501519790940196909652505094870194925090860190600101611f06565b509098975050505050505050565b8035801515811461065357600080fd5b60008060408385031215611fdf57600080fd5b611fe883611d55565b9150611ff660208401611fbc565b90509250929050565b634e487b7160e01b600052604160045260246000fd5b604051601f8201601f191681016001600160401b038111828210171561203d5761203d611fff565b604052919050565b6000806000806080858703121561205b57600080fd5b61206485611d55565b93506020612073818701611d55565b93506040860135925060608601356001600160401b038082111561209657600080fd5b818801915088601f8301126120aa57600080fd5b8135818111156120bc576120bc611fff565b6120ce601f8201601f19168501612015565b915080825289848285010111156120e457600080fd5b808484018584013760008482840101525080935050505092959194509250565b60006040828403121561211657600080fd5b604080519081016001600160401b038111828210171561213857612138611fff565b604052823581526020928301359281019290925250919050565b60008083601f84011261216457600080fd5b5081356001600160401b0381111561217b57600080fd5b60208301915083602082850101111561219357600080fd5b9250929050565b60008060008060008060008060008060006101008c8e0312156121bc57600080fd5b6121c58c611d55565b9a506121d360208d01611fbc565b99506121e28d60408e01612104565b98506001600160401b0360808d01358110156121fd57600080fd5b61220d8e60808f01358f01612152565b909950975060a08d013581101561222357600080fd5b6122338e60a08f01358f01612152565b909750955060c08d013581101561224957600080fd5b6122598e60c08f01358f01612152565b909550935060e08d013581101561226f57600080fd5b506122808d60e08e01358e01612152565b81935080925050509295989b509295989b9093969950565b600080604083850312156122ab57600080fd5b6122b483611d55565b9150611ff660208401611d55565b600181811c908216806122d657607f821691505b60208210811415610d3357634e487b7160e01b600052602260045260246000fd5b6020808252602d908201527f4552433732313a2063616c6c6572206973206e6f7420746f6b656e206f776e6560408201526c1c881bdc88185c1c1c9bdd9959609a1b606082015260800190565b602080825260189082015277115490cdcc8c4e881a5b9d985b1a59081d1bdad95b88125160421b604082015260600190565b634e487b7160e01b600052603260045260246000fd5b60006000198214156123ae57634e487b7160e01b600052601160045260246000fd5b5060010190565b6080815260006123c86080830187611db3565b82810360208401526123da8187611db3565b905082810360408401526123ee8186611db3565b91505082606083015295945050505050565b60008351612412818460208801611d87565b835190830190612426818360208801611d87565b01949350505050565b60208082526025908201527f4552433732313a207472616e736665722066726f6d20696e636f72726563742060408201526437bbb732b960d91b606082015260800190565b60208082526032908201527f4552433732313a207472616e7366657220746f206e6f6e20455243373231526560408201527131b2b4bb32b91034b6b83632b6b2b73a32b960711b606082015260800190565b6001600160a01b03858116825284166020820152604081018390526080606082018190526000906124f990830184611db3565b9695505050505050565b60006020828403121561251557600080fd5b815161127081611d22565b6020808252601c908201527b115490cdcc8c4e881d1bdad95b88185b1c9958591e481b5a5b9d195960221b60408201526060019056feddf252ad1be2c89b69c2b068fc378daa952ba7f163c4a11628f55a4df523b3efa26469706673582212206b345b5737a6b3e5fe33f6185342cd355587da55a38efea7ad7feedb8001a11164736f6c634300080b0033",
  "linkReferences": {},
  "deployedLinkReferences": {}
}